S31508000000D0050024AD020008AF270008BB2300086E
S31508000010AD27000819030008B92D000800000000E4
S315080000200000000000000000000000002D2B000862
S315080000309D05000800000000B12700082F2B0008C6
S31508000040C7020008C7020008C7020008C70200085E
S31508000050C7020008C7020008C7020008C70200084E
S31508000060C7020008A1050008C70200081D0300080A
S31508000070C7020008C7020008C7020008C70200082E
S31508000080C7020008C7020008C7020008C70200081E
S31508000090C7020008C7020008C7020008C70200080E
S315080000A0C7020008C7020008C7020008C7020008FE
S315080000B0C7020008C7020008C7020008C7020008EE
S315080000C0C7020008C7020008C7020008C7020008DE
S315080000D0C7020008C7020008C7020008C7020008CE
S315080000E0C7020008C702000800000000C70200088F
S315080000F0C7020008C7020008C7020008C7020008AE
S31508000100C7020008C7020008C7020008C70200089D
S31508000110C7020008C7020008C7020008C70200088D
S31508000120C7020008C7020008C7020008C70200087D
S31508000130C7020008C7020008C7020008C70200086D
S3150800014000000000000000000000000000000000A1
S31508000150C7020008C7020008C7020008C70200084D
S31508000160C7020008C7020008C7020008C70200083D
S31508000170C7020008C7020008C7020008C70200082D
S31508000180C7020008C7020008C7020008C70200081D
S31508000190C7020008C7020008C7020008C70200080D
S315080001A0C7020008C7020008C7020008C7020008FD
S315080001B0C7020008C7020008C7020008C7020008ED
S315080001C0C7020008C7020008C7020008C7020008DD
S315080001D0C7020008C7020008C7020008C7020008CD
S315080001E0C7020008C7020008C7020008C7020008BD
S315080001F0C7020008C7020008C7020008C7020008AD
S31508000200C7020008C7020008C7020008C70200089C
S31508000210C7020008C7020008C7020008C70200088C
S31508000220C7020008C7020008C7020008000000004D
S31508000230C7020008C702000800000000C70200083D
S31508000240C7020008C7020008C7020008C70200085C
S31508000250C7020008C7020008C7020008C70200084C
S31508000260C7020008C7020008C7020008C70200083C
S31508000270C7020008C7020008C702000800000000FD
S31508000280C7020008C7020008C702000800000000ED
S3150800029000000000C7020008DFF80CD000F02AF8BA
S315080002A000480047FD2D0008D00500240648804771
S315080002B006480047FEE7FEE7FEE7FEE7FEE7FEE73D
S315080002C0FEE7FEE7FEE7FEE7152C000899020008A0
S315080002D0D2B201E000F8012B491EFBD2704700227A
S315080002E0F6E710B513460A4604461946FFF7F0FF27
S315080002F0204610BD064C074D06E0E06840F00103B5
S3150800030094E8070098471034AC42F6D3FFF7C8FFC5
S315080003103C2F00085C2F0008FEE700001648174926
S31508000320174A836843F402638360036923F0010371
S315080003300361836A23F0010383624B691B0702D4B6
S315080003404FF0FF33D3600B6823F001030B608B6813
S3150800035023F440438B608B6943F018038B61016972
S31508000360C90702D1806AC00702D06FF00100D060C9
S315080003700120107070470000000002400030014064
S3150800038010000024294A016891423AD0274A1832B7
S31508000390914236D0254A3032914232D0234A4832E9
S315080003A091422ED0214A603291422AD01F4A783291
S315080003B0914226D01D4A9032914222D01B4AA83239
S315080003C091421ED01A4A91421BD0194A18329142BC
S315080003D017D0174A3032914213D0154A4832914203
S315080003E00FD0134A603291420BD0114A78329142AB
S315080003F007D00F4A9032914203D00D4AA832914253
S3150800040011D1CAB21823103AB2FBF3F26FF30901FD
S31508000410032A02F00703074AD25CC26500D9091D00
S3150800042081650846704721F0FF01F9E71000024090
S3150800043010040240332F000830B5224A0123016810
S315080004409142CAB21BD01F4C1434A14217D01D4C7E
S315080004502834A14213D01B4C3C34A1420FD0194C6E
S315080004605034A1420BD0174C6434A14207D0154C26
S315080004707834A14203D0134C8C34A1420CD11421F8
S31508000480114C083AB2FBF1F10F4A803201F01F0510
S3150800049004EB8101AB4010E00C4D1824103A0D44D2
S315080004A0B2FBF4F1A82D00D80831094A01F01F045F
S315080004B002EB8101064AA3408032603080E80E00D4
S315080004C030BD00000854025800580258F0FBFDBF22
S315080004D00008024010B50279531E072B2DD8174C79
S315080004E00168A1421BD0154C1434A14217D0134CF5
S315080004F02834A14213D0114C3C34A1420FD00F4CE2
S315080005005034A1420BD00D4C6434A14207D00B4C99
S315080005107834A14203D0094C8C34A14203D108494E
S31508000520074C443102E00749064C443104EB820289
S31508000530C0E91B2101219940416710BD08540258A2
S31508000540FC580258FC08024010B583694FF0C07485
S31508000550826A0146002053B1B3F5005F15D072B127
S31508000560012A0CD0022A0AD0032A09D104E01AB1BA
S31508000570012A06D0022A03D1C96AC90100D5012079
S3150800058010BDC96AA142FAD010BD002AF7D0012AC7
S31508000590F2D0022AF3D0032AF3D010BD7047000028
S315080005A04FF0B043254A70B5254D2649D3F8884003
S315080005B0254844F00804C3F8884014782B68A4B981
S315080005C0D3600C6924F001040C618C6A24F00104E0
S315080005D08C628C6844F402648C60046824F001041C
S315080005E00460846824F44044846017244C61CC6217
S315080005F0866846F4804686600E6946F001060E61F6
S315080006008E6A46F001068E62816841F40041816077
S315080006104460066800240D4946F00106066006682F
S3150800062046F4007606605B1C2B60147008685368F5
S31508000630C01A90600868506070BD00001000002461
S31508000640000000240000024000300140240400405D
S31508000650704700002DE9F05F044600F011FB002CFE
S3150800066007467DD0E34E022120684FF00308DFF8E5
S3150800067088934FF00005DFF884A3B042DFF880B313
S3150800068034D0DC4A1832904230D048452ED05045F6
S315080006902CD058452AD0DA4A1832904226D0D84A61
S315080006A03032904222D0D64A483290421ED0D54A9D
S315080006B090421BD0D34A1832904217D0D14A3032D2
S315080006C0904213D0CF4A483290420FD0CD4A60327A
S315080006D090420BD0CB4A7832904207D0C94A903222
S315080006E0904203D0C74AA83290427DD184F835108B
S315080006F0B04284F834502ED0BE49183188422AD0E8
S31508000700484528D0504526D0584524D0BC491831EC
S31508000710884220D0BA49303188421CD0B84948317D
S31508000720884218D0B749884215D0B6491831884248
S3150800073011D0B449303188420DD0B2494831884287
S3150800074009D0B0496031884205D0AE49783188422F
S3150800075001D0AC499031016821F00101016008E03F
S3150800076027E100BF00F08CFAC01B052801D920211B
S315080007701CE120680068C007F4D104F1080021686C
S31508000780D4E9053C8E4685C809681043D4E907288C
S315080007901F43636A38439C4F40EA0C0010433940B4
S315080007A040EA0800042B40EA010003D1D4E90B1201
S315080007B011430843954909686FF30F01B1F1005FCA
S315080007C00FD36168A1F12902052A08D9163A032A26
S315080007D005D9083A012A02D94F39032901D840F424
S315080007E08010CEF8000000E023E02068676A4069C0
S315080007F0042F20F0070047EA00070DD1D4E90A01C3
S31508000800074349B12046FFF79FFE28B1402060659F
S31508000810012184F83510CCE0206847612046FFF7AF
S31508000820B1FD94F85C203F2102F01F0291408160DF
S3150800083054E0774A90421BD0754B1433984217D030
S31508000840734B2833984213D0714B3C3398420FD0E0
S315080008506F4B503398420BD06D4B6433984207D098
S315080008606B4B7833984203D0694B8C3398427DD1D1
S3150800087084F8351084F83450664B0168A26801EA9A
S31508000880030E402A73D0802A72D00022D4E9037856
S31508000890D4E9053142EAD70242EAD8085C4AD4E9E3
S315080008A0077C48EAD30848EAD10141EAD70152420F
S315080008B041EA1C11142341EA0E0101602068104424
S315080008C0B0FBF3F08000E0652046FFF75BFD94F887
S315080008D05C20012102F01F02914041602068B0426D
S315080008E057D044491831884253D0484551D05045CD
S315080008F04FD058454DD042491831884249D04049D1
S315080009003031884245D03E494831884241D03D4938
S3150800091088423ED03B49183188423AD0394930316D
S31508000920884236D037494831884232D03549603115
S3150800093088422ED03349783188422AD031499031BD
S31508000940884226D02F49A831884222D03049884289
S315080009501FD02F49143188421BD02D49283188428F
S3150800096017D02B493C31884213D002E01DE017E02E
S3150800097018E02749503188420BD02549643188420E
S3150800098007D023497831884203D021498C318842DF
S3150800099029D12046FFF750FDA06880280CD00CE02E
S315080009A0102273E74FF4804270E74021616584F8AE
S315080009B035800120BDE8F09F6560216E20790860CA
S315080009C0D4E9190141606068401E072808D8204606
S315080009D0FFF780FDE06E0560D4E91C01416002E086
S315080009E0E566256765670120656584F8350000209A
S315080009F0E0E70000100002404000024058000240B4
S31508000A0070000240100402403F8010FE0010005C97
S31508000A10085402580F00FEFF70B5044600F030F97E
S31508000A200546601C02D004480078044400F028F902
S31508000A30401BA042FAD370BD200000242DE9F84FD0
S31508000A4003247D4D00234FF001094FF0B04B4FF0C2
S31508000A500F0AE9E009FA03F73A4076D00E7906F06C
S31508000A600306012E01D0022E18D1D0F808C04FEA8D
S31508000A70430ECE6804FA0EF82CEA080C06FA0EF6AF
S31508000A8046EA0C068660D0F804C00E792CEA070CF4
S31508000A90C6F300169E4046EA0C0646600E79F643F3
S31508000AA0B6070BD0C6684FEA43088F6804FA08FCF5
S31508000AB026EA0C0607FA08F73743C7600E7906F0E8
S31508000AC00306022E12D1DE080F694FEA437C00EBBB
S31508000AD08606B646366A4FEADC6C0AFA0CF807FA56
S31508000AE00CF726EA08063743CEF820700F79066811
S31508000AF04FEA430807F0030704FA08FC07FA08F761
S31508000B0026EA0C06374307604E6816F4403F1CD0A9
S31508000B104A4E376847F00207376036689F0706F07F
S31508000B200206009623F0030606F1B046B6463F0FC6
S31508000B30D6F80864DFF808810AFA07FC404526EA71
S31508000B400C0603D14FF0000C41E06CE0DFF8F4C06E
S31508000B50604502D14FF0010C39E0DFF8ECC0604582
S31508000B6002D14FF0020C32E0DFF8E0C0604502D156
S31508000B704FF0030C2BE0DFF8D8C0604502D14FF0E8
S31508000B80040C24E0DFF8CCC0604502D14FF0050C18
S31508000B901DE0DFF8C4C0604502D14FF0060C16E030
S31508000BA0DFF8B8C0604502D14FF0070C0FE0DFF858
S31508000BB0B0C0604502D14FF0080C08E0DFF8A4C0C9
S31508000BC0604502D14FF0090C01E04FF00A0C0CFA0F
S31508000BD007FC4CEA060CCEF808C44F68DBF8006040
S31508000BE0FF0226EA020600D516435F46CBF80060E8
S31508000BF0D1F804C0DBF804605FEA8C2C26EA02060A
S31508000C0000D516437E606E684F6826EA0206BF0363
S31508000C1000D516436E602E684F6826EA0206FF0363
S31508000C2000D516432E605B1C0A6832FA03F67FF479
S31508000C3011AFBDE8F88F000080000058F444025850
S31508000C40000002580004025800080258000C025816
S31508000C50001002580014025800180258001C0258C6
S31508000C6000200258002402580AB18161704709041D
S31508000C70FBE7000001480068000C70470010005CA4
S31508000C8001488068704700002000002402488168F7
S31508000C90027811448160704720000024032010B5B3
S31508000CA000F0D4F800F0A4FE0F4A1049146813683F
S31508000CB0C4F3032203F00F038A5CC95C02F01F0227
S31508000CC001F01F01D0400A4A20FA01F111600949D2
S31508000CD00860002000F010F808B1012010BD00F0EF
S31508000CE079F8002010BD0000184402580C2F00089F
S31508000CF00C0000240800002470B50D4D0446287821
S31508000D00A0B14FF47A71B1FBF0F00A490968B1FB5A
S31508000D10F0F001F03FFB48B9102C07D2002221461B
S31508000D20501E00F073F800206C6070BD012070BD85
S31508000D302000002408000024F0B5154C4378211D36
S31508000D400A1D23600378F3B143680B60057BC67AF6
S31508000D50817A437B2D07847B45EA0665C77B90F835
S31508000D6009C0067A90F800E045EAC14040EA8340A7
S31508000D7040EA444040EA074040EA0C2040EA460080
S31508000D8040EA0E0001E0002008601060F0BD000097
S31508000D9098ED00E0BFF35F8F044800210368034A1B
S31508000DA023F48033036070321160704724ED00E04D
S31508000DB0074A40F00100064970321060086840F49E
S31508000DC080300860BFF34F8FBFF36F8F7047000006
S31508000DD024ED00E0054808B5016841F0020101600C
S31508000DE0006800F00200009008BD0000F4440258B4
S31508000DF0002809DB410900F01F028900012001F1E2
S31508000E00E0219040C1F80001704700000E4BF0B495
S31508000E101B680D46C3F30223C3F10706042E00D947
S31508000E200426191D072901D2002300E0DB1E012430
S31508000E3004FA06F19C40491E2940641E9940144054
S31508000E402143F0BC01F0B9BF0CED00E0064900F003
S31508000E50070210B54FF6FF040868044B204040EA25
S31508000E6002201843086010BD0CED00E00000FA05EA
S31508000E70134970B50A68D243520705D5096801F0C7
S31508000E800701814213D118E00A6822F007020243DB
S31508000E900A60FFF7F5FE0A4D4FF47A760446083DD8
S31508000EA007E000BFFFF7ECFE001BB04201D90120A6
S31508000EB070BD2868C0438004F4D4002070BD0000CB
S31508000EC00C4802582DE9FC5F044650F8241B0025FF
S31508000ED000902E460801FE4FDFF8F8831DD5606E98
S31508000EE050B1B0F5801F0CD0B0F5001F0ED0B0F58C
S31508000EF0401F1DD001250FE0386840F400303860E7
S31508000F0016E00221201D01F055FC03E0009802219D
S31508000F1001F0E0FC05000BD02E462088C00523D53D
S31508000F20606D05281ED2DFE800F00C11161B1B00A9
S31508000F30626ED8F8001021F440111143C8F8001069
S31508000F40EBE7386840F40030386009E00021201DDE
S31508000F5001F030FC03E00098002101F0BBFC0546D7
S31508000F606DB100E001252E462088800528D5A06DA4
S31508000F7080281ED00CDC90B140280ED114E0626D9A
S31508000F80D8F8001021F007011143C8F80010EBE764
S31508000F90C02813D0B0F5807F10D001250FE038683F
S31508000FA040F40030386009E00021201D01F002FC01
S31508000FB003E00098002101F08DFC054695B12E4608
S31508000FC02088DFF81093400509F108092CD5D4F8D4
S31508000FD0A400B0F5800F20D00DDCA0B1B0F5001F3D
S31508000FE00FD115E0A26DD8F8001021F4E071114375
S31508000FF0C8F80010E4E7B0F5C00F13D0B0F5000F3D
S3150800100010D001250FE0386840F40030386009E058
S315080010100021201D01F0CEFB03E00098002101F01D
S3150800102059FC054675B12E46208800052DD5D4F8FD
S31508001030A800B0F1007F21D00EDCA8B1B0F1807F06
S3150800104010D116E0D4F8A420D9F8001021F46001D4
S315080010501143C9F80010E7E7B0F1407F13D0B0F1AB
S31508001060806F10D001250FE0386840F400303860F2
S3150800107009E00021201D01F09DFB03E000980021F6
S3150800108001F028FC05466DB12E46206880011FD563
S31508001090A06CD8B110280FD0202812D0302815D02F
S315080010A0012514E0D4F8A820D9F8001021F0E06151
S315080010B01143C9F80010E8E7386840F40030386092
S315080010C004E00221201D01F075FB05466DB12E4690
S315080010D02088C0042BD5E06DB0F5005F20D00DDC6C
S315080010E0A0B1B0F5805F0FD115E07A48A26C001F59
S315080010F0016821F0300111430160E9E7B0F5405F6E
S3150800110013D0B0F5804F10D001250FE0386840F4B1
S315080011100030386009E00021201D01F04BFB03E098
S315080011200098002101F0D6FB054685B12E46208899
S31508001130800429D5206EB0F5403F23D010DC08B3D3
S31508001140B0F5803F14D0B0F5003F0FD115E0E26D41
S31508001150D8F8001021F4E0411143C8F80010E6E77A
S31508001160B0F5802F0ED0B0F5A02F0BD001250AE0E0
S315080011700121201D01F01EFB03E00098012101F06A
S31508001180A9FB05468DB12E46208840042AD5D4F8F9
S31508001190AC00B0F1405F23D010DC08B3B0F1805F3B
S315080011A014D0B0F1005F0FD115E0226ED8F8001008
S315080011B021F4E0211143C8F80010E5E7B0F1804FAB
S315080011C00ED0B0F1A04F0BD001250AE00121201D59
S315080011D001F0F0FA03E00098012101F07BFB0546D7
S315080011E06DB12E46208800041FD5E06ED8B1B0F147
S315080011F0805F0ED0B0F1005F10D0012514E0D4F85E
S31508001200AC20D9F8001021F0E0411143C9F80010CC
S31508001210E8E7386840F40030386004E00121201D12
S3150800122001F0C8FA05466DB12E462068C0011ED5E4
S31508001230606CD0B101280ED0022811D0032814D032
S31508001240012513E0E26ED8F8001021F04051114351
S31508001250C8F80010E9E7386840F40030386004E060
S315080012600221201D01F0A6FA054685B12E46206802
S31508001270DFF85CB04002ABF11C0B56D51648016886
S3150800128041F480710160FFF7FBFC82460EE01148CD
S31508001290626C001F016821F0030111430160E6E753
S315080012A0FFF7EEFCA0EB0A0064283CD80A48006861
S315080012B0C005F5D57DBBDFF81CA0B4F8B0200AF14F
S315080012C0200ADAF8001002F4407001F4407105E0D3
S315080012D02C4402585044025800480258814211D002
S315080012E0DAF80010DAF8002021F4407142F480326E
S315080012F0CAF80020DAF8002022F48032CAF8002062
S31508001300CAF80010D4F8B000B0F5807F20D1FFF7F6
S31508001310B7FC019018E007E0FFF7B2FC0199401A04
S31508001320B0F5FA6F10D903252E462078DFF840A4C9
S31508001330C0073DD0A06F182838D026DC80B308280F
S3150800134029D0102825D12CE0DAF800008007E3D54B
S31508001350D4F8B010C1F30120032858460DD001680F
S3150800136021F47C510160B4F8B020DAF80010C2F319
S315080013700B021143CAF80010D7E7FE4A036802EACF
S31508001380111223F47C511143ECE720280ED02828AB
S315080013900CD001250BE00121201D01F00BFA04E019
S315080013A004E00098012101F095FA05465DB12E4644
S315080013B0207880071ED5606F062819D2DFE800F06E
S315080013C0160C11161616A26FDAF8001021F038015D
S315080013D01143CAF80010EBE70121201D01F0EAF9D4
S315080013E003E00098012101F075FA054675B100E0A1
S315080013F001252E46207840071FD5D4F890000628E8
S3150800140019D2DFE800F0160C11161616626FDAF814
S31508001410001021F007011143CAF80010EAE701217C
S31508001420201D01F0C7F903E00098012101F052FAE6
S3150800143005469DB100E001252E46207880062BD56D
S31508001440D4F88C00B0F1405F24D011DC10B3B0F1B1
S31508001450805F15D0B0F1005F10D116E0D4F8902067
S31508001460D9F8001021F007011143C9F80010E4E784
S31508001470B0F1804F0ED0B0F1A04F0BD001250AE095
S315080014800021201D01F096F903E00098022101F0E1
S3150800149021FA05468DB12E46207840062BD5D4F87C
S315080014A09800B0F5406F24D011DC10B3B0F5806F0A
S315080014B015D0B0F5006F10D116E0D4F88C20DAF804
S315080014C0001021F0E0411143CAF80010E4E7B0F536
S315080014D0805F0ED0B0F5A05F0BD001250AE0002191
S315080014E0201D01F067F903E00098022101F0F2F9E6
S315080014F005468DB12E46207800062BD5D4F89C00DB
S31508001500B0F5C04F24D011DC10B3B0F5005F15D08C
S31508001510B0F5804F10D116E0D4F89820D9F800100D
S3150800152021F4E0511143C9F80010E4E7B0F5004F83
S315080015300ED0B0F5204F0BD001250AE00021201D62
S3150800154001F038F903E00098022101F0C3F90546D5
S315080015504DB12E46207800071ED5D4F88000B0F588
S31508001560805F0AD00FE0D4F89C20D9F8001021F447
S3150800157060411143C9F80010ECE70098022101F018
S31508001580A9F900B10126D4F88020DAF8001021F470
S3150800159040511143CAF800102078C00613D5D4F874
S315080015A09400B0F5807F05D10098022101F092F9E8
S315080015B000B10126D4F89420D9F8001021F440711E
S315080015C01143C9F800102068000316D5D4F8A00006
S315080015D038B1B0F5803F09D0B0F5003F0BD00125F2
S315080015E00AE00021201D01F0E5F803E00098022139
S315080015F001F070F9054685B12E462068400322D5CC
S31508001600D4F88400B0F5801F11D0B0F5001F13D0B0
S31508001610B0F5401F15D0012514E0D4F8A020D9F85C
S31508001620001021F440311143C9F80010E5E7386885
S3150800163040F40030386004E00098012101F04AF9CE
S31508001640054655B12E462068C0031CD5E06C70B11E
S31508001650B0F5803F10D0012514E0D4F88420DAF8DC
S31508001660001021F440111143CAF80010EBE738685E
S3150800167040F40030386004E00221201D01F09AF899
S315080016800546CDB12E462068800005D50098022172
S3150800169001F020F900B10126206880031BD5E06F10
S315080016A0B8B1B0F5807F10D0B0F5007F11D0B0F595
S315080016B0407F0ED001250DE02D48E26C0838016800
S315080016C021F4803111430160DDE7386840F40030C9
S315080016D03860EDB32E462068C00207D5226FD8F8C9
S315080016E0001021F000411143C8F800102068C0001E
S315080016F008D5D4F8B420DBF8001021F48041114352
S31508001700CBF800102068800207D5A26ED8F8001022
S3150800171021F080711143C8F80010206840000CD5EC
S31508001720DBF8001021F40041CBF80010DBF80010BC
S31508001730D4F8B8201143CBF800102068002809DA3D
S315080017400B48226D0838016821F04051114300E02A
S3150800175015E001602068000208D5D4F88820DAF878
S31508001760001021F440011143CAF8001086B103E0C5
S3150800177054440258CFFFFF000120BDE8FC9FE26FEA
S31508001780DAF8001021F440711143CAF80010A2E7F4
S315080017900020F2E72DE9F05F04000F467ED0DFF85F
S315080017A03882D8F8000000F00F00B8420CD2D8F8FA
S315080017B0001021F00F013943C8F80010D8F80000CE
S315080017C000F00F00B84269D12078844D40070AD549
S315080017D02069296801F07001884204D9296821F036
S315080017E070010143296020787C4E361D00070AD512
S315080017F06069316801F07001884204D9316821F0C6
S315080018007001014331602078C0060AD5A0693168A5
S3150800181001F4E061884204D9316821F4E0610143AA
S3150800182031602078DFF8B4B180060BF1080B0CD5CF
S31508001830E1695846DBF8002002F07002914204D9AB
S31508001840026822F070020A430260207880070AD5EF
S31508001850E068296801F00F01884204D9296821F057
S315080018600F01014329602078C0073ED05B49A26872
S315080018702868183920F470601043286060680228C8
S3150800188018D0032819D00968012819D04907002952
S315080018904ADADFF848A1AAF1080A00E044E0DAF8D3
S315080018A0002022F007020243CAF80020FFF7E8F9F1
S315080018B0814612E009688903E9E709688901E6E7CC
S315080018C0C905E4E7FFF7DCF9A0EB090141F2883026
S315080018D0814202D90320BDE8F09F6168DAF800006A
S315080018E000F03800B0EBC10FECD1207880070AD59C
S315080018F0E068296801F00F01884204D2296821F0BE
S315080019000F0101432960D8F80010404601F00F0185
S31508001910B9420BD9016821F00F013943016000680B
S3150800192000F00F00B84201D00120D4E72078400724
S315080019300AD52069296801F07001884204D229680D
S3150800194021F0700101432960207800070AD56069F3
S31508001950316801F07001884204D2316821F07001C3
S31508001960014331602078C0060AD5A069316801F4C0
S31508001970E061884204D2316821F4E06101433160B4
S31508001980207880060CD5E1695846DBF8002002F07D
S315080019907002914204D2026822F070020A43026081
S315080019A000F026F80E492A682B68C2F3032203F0D2
S315080019B00F038A5CC95C02F01F0201F01F01D040C8
S315080019C0084A20FA01F111600749086007480068CB
S315080019D0BDE8F05FFFF790B900200052184402589E
S315080019E00C2F00080C000024080000242400002402
S315080019F0454970B545480968434B103B11F0380214
S31508001A0008D00111082A03D0102A0BD0182A0BD0A7
S31508001A10084670BD19688906FBD51968C1F3C10166
S31508001A20C84070BD3A4870BD3749374D18310C1D4E
S31508001A3024350A68096826682D6802F0030406F04A
S31508001A400102C1F30511C5F3CC0515FB02F200EE40
S31508001A50102AB8EE400AE9B32F4ADFED2E0AB7EE90
S31508001A60001A6CB1DFED2D1A012C01D0022C43D0DF
S31508001A7002EE101A1068F8EE422A81EEA22A1EE03B
S31508001A801C68A40611D51B6801EE901A1168C3F3E9
S31508001A90C103F8EE612AD84001EE900AC1F30800A6
S31508001AA0F8EE611A81EEA22A0BE001EE901ADFED3C
S31508001AB01C2A00BFF8EE611A106882EEA12AC0F34C
S31508001AC0080001EE900AF8EE611A40EE201A31EE8F
S31508001AD0810A00E015E022EE000A1068C0F34620ED
S31508001AE0401C00EE900AF8EE600A80EE201ABCEE62
S31508001AF0C10A10EE100A70BD01EE901ADFED092A30
S31508001B00D8E7002070BD0000104402580090D003AA
S31508001B1040787D0100000039304402580024744A98
S31508001B200024744C20BCBE4B2DE9F05F04007DD028
S31508001B30FF4F2078FE4D1837DFF8F493103DC007A5
S31508001B4048D0D9F80000396800F03800102815D0B8
S31508001B50182803D101F0030002280FD06068B0F5F9
S31508001B60803F12D010B1B0F5A02F18D0286820F405
S31508001B7080302860286820F4802009E028688003DF
S31508001B8028D560680028D2D024E0286840F4803040
S31508001B902860606888B1FFF773F8064609E0286888
S31508001BA040F480202860F0E7FFF76AF8801B642875
S31508001BB06FD828688003F7D50CE0FFF761F806466A
S31508001BC005E000BFFFF75CF8801B6428F0D828689A
S31508001BD08003F7D4207841F20308D54E0C3E8007DF
S31508001BE069D5D9F80000396810F038000ED01828E1
S31508001BF001D188070AD0E06890B3296821F0190155
S31508001C0001432960FFF73CF8824631E0286840071F
S31508001C1002D5E06800288AD0E168286820F0190013
S31508001C2008432860FFF72CF8824607E0DFE000BF8C
S31508001C30FFF726F8A0EB0A000228B9D8286840075B
S31508001C40F6D500BFFFF716F840451BD8206940288F
S31508001C5012D0316821F47C3141EA003030602AE044
S31508001C6018E000BFFFF70CF8A0EB0A0002289FD87F
S31508001C7028684007F6D5E5E7306820F47C3040F45C
S31508001C800030EBE7207C316821F0FE4141EA006034
S31508001C90E4E70DE1286820F001002860FEF7F0FF70
S31508001CA0824605E0FEF7ECFFA0EB0A0002288DD875
S31508001CB028684007F6D42078C0065DD5D9F8000014
S31508001CC0DFF86CB2396800F03800ABF1040B08286D
S31508001CD010D0182803D101F0030001280AD0E069C2
S31508001CE00028286838D040F080002860FEF7C8FF32
S31508001CF0824623E02868C00523D5E069802876D186
S31508001D001FE0206A202821D0316821F0F84141EAF5
S31508001D108060306030E000BF94F82010DBF80020C7
S31508001D2022F07C5242EA0161CBF8001024E000BFA1
S31508001D30FEF7A6FFA0EB0A00022898D82868C00577
S31508001D40F6D5FEF797FF4045E6D8DAE7306820F083
S31508001D50F84040F08040DCE720F080002860FEF77D
S31508001D608FFF064605E000BFFEF78AFF801B0228A4
S31508001D709DD82868C005F7D42078000729D56C486F
S31508001D806169643000298046016811D041F001017B
S31508001D900160FEF775FF064605E000BFFEF770FF17
S31508001DA0801B0228C9D8D8F800008007F6D510E0AD
S31508001DB021F001010160FEF763FF064605E000BF5A
S31508001DC0FEF75EFF801B022872D8D8F8000080074D
S31508001DD0F6D42078800623D5A0690028286810D074
S31508001DE040F480502860FEF74BFF064605E02CE1DC
S31508001DF0FEF746FF801B02285AD828688004F7D5C4
S31508001E000EE020F480502860FEF73AFF064604E00C
S31508001E10FEF736FF801B02284AD828688004F7D4C4
S31508001E20207840074FD5DFF80C81D8F8001041F428
S31508001E308071C8F80010FEF723FF064605E000BFCC
S31508001E40FEF71EFF801B642832D8D8F80000C005AC
S31508001E50F6D5374EA068603601280AD008B105289D
S31508001E6013D0306820F001003060306820F004009C
S31508001E7002E0306840F001003060A0684FF4FA6A6A
S31508001E8090B1FEF7FDFE80460AE0306840F0040097
S31508001E903060EEE7FEF7F4FEA0EB0800504507D8E1
S31508001EA030688007F6D50EE0FEF7EAFE804607E0C2
S31508001EB084E000BFFEF7E4FEA0EB080050457DD89D
S31508001EC030688007F6D4606AB0B3DFF86480D9F862
S31508001ED0001008F12008C1F3C20103296FD00228B7
S31508001EE0286820F08070286003D0FEF7C9FE0446F3
S31508001EF080E0FEF7C5FE064605E000BFFEF7C0FE19
S31508001F00801B022873D828688001F7D4E26A40F259
S31508001F10F331386854F8283F884340EA02101843DA
S31508001F203860217B4FF4FE0C22894FF0FE4704E00F
S31508001F30104402580048025889E0208A4902521E75
S31508001F40267DA1F5007189B2401EC2F3080211432D
S31508001F50761E0CEA004001433E4807EA0662114332
S31508001F603C4AC8F800100832016821F001010160F6
S31508001F7011684FF6F876236AB14341EAC301116046
S31508001F800168A26921F00C01114301600168E26948
S31508001F9021F0020111430160016841F480310160BA
S31508001FA0016841F400310160016841F48021016053
S31508001FB0016841F001010160286801E017E01DE0B1
S31508001FC040F080702860FEF75BFE044605E000BF1F
S31508001FD0FEF756FE001B022809D828688001F7D5A7
S31508001FE035E000BFFEF74CFE001B022802D903208D
S31508001FF0BDE8F09F28688001F4D428E039680128F4
S31508002000D8F8000021D0A26A01F0030393421CD13C
S31508002010E26AC1F305118A4217D1216BC0F308029F
S31508002020491E8A4211D1616BC0F34622491E91426C
S315080020300BD1A16BC0F30642491E914205D1E16B53
S31508002040C0F30660491E814201D00120D0E7002076
S31508002050CEE700002C4402582DE9F04104002FD0A9
S31508002060607A4FF0000820B9204684F8088000F00E
S3150800207035F8022666720427D4E90002016821F0C1
S315080020802001114301602068016841F004010160E4
S3150800209020684068C043400601D4677210E0FEF726
S315080020A0EFFD05460FE000BFFEF7EAFD401B0228DC
S315080020B009D920684068C043400704D46772E660BF
S315080020C00120BDE8F08120684068C0434007EBD591
S315080020D001216172C4F80C800020F2E710B5B0B097
S315080020E00446BC216846FEF7FAF80D49206888427E
S315080020F013D14FF400300090002168461F91FEF777
S31508002100E1FE08B1FEF7A4FA0648016841F040016D
S315080021100160006800F040002F9030B010BD00004C
S3150800212000180248DC4402582DE9F047040029D07B
S31508002130504A4FF0000920684F4B504D9042C4F862
S31508002140289006D0984204D0A84202D0E1680F2908
S3150800215018D8E1684FF0010AE76B0831C9080AEB9D
S3150800216057167143904205D0984203D0A84201D031
S31508002170082907D8904203D0984201D0A84204D132
S31508002180102902D90120BDE8F08794F8810020B90A
S31508002190204684F8809000F073F8022084F88100C5
S315080021A02068016821F0010101602168A0698A6838
S315080021B0B0F1806F02F4F81010D16268B2F5800FA2
S315080021C001D01AB10AE0A26B22B107E0A26BB2F104
S315080021D0805F03D10A6842F480520A60A66AE16900
S315080021E0E26B25683143E368024311431943A9604A
S315080021F0D4E90D02D4E90571636A25691843D4F850
S3150800220020C00A43266810432843A56D3843D4E9FD
S315080022100182D4E9123140EA0C0040EA080008437A
S31508002220104318432843F060606868B920688168DD
S3150800223021F4C05141F4006181602068816821F46D
S31508002240C06141F4806181602068016D21F001015F
S3150800225001656068400206D52068626DC16821F094
S3150800226000411143C160C4F8849084F881A000201D
S3150800227089E700000030014000380040003C00407B
S315080022802DE9F047B6B0064614212FA8FEF727F821
S31508002290BC216846FEF723F83949306888426BD175
S315080022A080140090002468461794FEF70BFE08B1C8
S315080022B0FEF7CEF93348016841F4805101600068A1
S315080022C000F4805034902F481038016841F001011D
S315080022D0016000682FAB022100F001003490F02065
S315080022E0052283E8130028482FA9CDE93242FEF7D4
S315080022F0A5FBDFF898804FF48067254B25254046D7
S315080023004FF0040908F120014FF0010AC8F800301F
S31508002310C0E90154C0E90347C8F81440C8F8184092
S31508002320C8F81C4081E81006C8F82C40C8F83040A8
S31508002330FEF790F908B1FEF78BF9144D2620144ADA
S3150800234040217835C6F87C801832C8F8386004C54C
S3150800235085E8930005F11C002C616C61AC6180E88E
S315080023601006281FAC62EC622D1FFEF773F908B140
S31508002370FEF76EF9B567AE6336B0BDE8F0870000C4
S3150800238000300140F044025800000258E0000024E2
S3150800239010000240401EB0F1807F10B501D3012025
S315080023A010BD4FF0E02460610F21601700F005FDB5
S315080023B00020A0610721216110BDFEE71CB58C2114
S315080023C002228DF8001069468DF80100312000F0D0
S315080023D075FB8020694601228DF80000342000F044
S315080023E06DFB0A20FEF718FB0122352001A900F033
S315080023F015FB9DF804001CBD08B50C228DF80020BD
S3150800240003228DF8010031208DF80210694600F08C
S3150800241055FB8020694601228DF80000342000F023
S315080024204DFB0120FEF7F8FA08BD0000184810B564
S3150800243086B0016841F001010160006800240222AB
S3150800244000F001000590082001234FF488118DE85B
S315080024501F0010486946FEF7F1FA0F4817210F4B7F
S315080024600E4A0F4C103BC461826141610D4A4263BA
S315080024700363C162016941F0100101610022042170
S315080024800920FEF7C3FC0920FEF7B2FC06B010BD12
S31508002490E044025800000258000002403030014073
S315080024A02C0000241C2F00082DE9FC4101220721DD
S315080024B014466B208DF8002000F09CFA20228DF837
S315080024C0002015466A20294600F094FA4D276946E9
S315080024D001228DF80070242000F0F0FA00210A206D
S315080024E0FFF78AFF8020694601228DF800006B20DD
S315080024F000F0E4FA0A20FEF78FFA01210B20FFF715
S315080025007BFF072122466B208DF8004000F072FA07
S3150800251001226946752000F081FA9DF800007128AD
S3150800252002D00520BDE8FC81012269461A208DF8F3
S31508002530004000F0C3FA0826694601228DF80060BB
S315080025401C2000F0BBFA0720694601228DF800001E
S315080025501D2000F0B3FA1820694601228DF8000004
S315080025601B2000F0ABFA002231466B208DF8006084
S3150800257000F040FA1020694601228DF80000372045
S3150800258000F09CFA0122694638208DF8004000F0D8
S3150800259095FA6A2029462A468DF8005000F02AFA4C
S315080025A00122694624208DF8007000F087FA002081
S315080025B0FFF704FF48288DF8000001D00220B1E794
S315080025C000210A20FFF718FFC820FEF725FA0F2179
S315080025D00A20FFF711FFC820FEF71EFA1020FFF7A2
S315080025E0EDFE214D28701120FFF7E8FE68701220D5
S315080025F0FFF7E4FE0021A8700A20FFF7FDFEC820B9
S31508002600FEF70AFA16210A20FFF7F6FEC820FEF79B
S3150800261003FA0920694601228DF80000342000F0EB
S315080026204DFA0122694667208DF8004000F046FA07
S315080026308C208DF8040002218DF8051088228DF86B
S3150800264006200322252001A900F038FA0120FEF70A
S31508002650E3F906480068816821F0E04141F04051FD
S31508002660816000205EE70000110000245800002465
S31508002670094808B5016841F00101016000680022B7
S31508002680042100F0010000900B20FEF7BFFBBDE817
S3150800269008400B20FEF7ACBBD844025810B586B0EC
S315080026A014216846FDF71BFE1948016841F0100120
S315080026B00160016801F010010591016841F004010B
S315080026C00160016801F004010591016841F080018B
S315080026D00160016801F080010591016841F001017E
S315080026E00160006800220B4C082100F001000590EB
S315080026F02046FEF7B9FA002108200090012220465C
S31508002700CDE9012103916946FEF798F906B010BD97
S31508002710E04402580010025808480022064910B53D
S31508002720C0E90012FFF798FC002803D0BDE8104066
S31508002730FDF78EBF10BD00000018024844000024B3
S315080027402DE9F04118484FF480070726DFF854C0F2
S315080027500021FD0005614FF0C0426C10C0E9021669
S31508002760C0E907216301416281620122C0E905438C
S31508002770C16210234163D4078163C1630164443095
S3150800278080E80E00C0E90314416140E911C74438E6
S31508002790FFF7CAFC002803D0BDE8F041FDF758BF93
S315080027A0BDE8F0810030014058000024FEE770477C
S315080027B0704700002DE9F047454D044689464FF01D
S315080027C0000A2868C04380070AD0414E283E306870
S315080027D020F080603060FEF753FA0746B04608E0FE
S315080027E00120BDE8F08700BFFEF74AFAC01B0228A1
S315080027F067D8D8F800000001F6D4206829684FF495
S31508002800FE0721F47C313E0241EA00302860207A36
S31508002810A389B4F804C040022D4D2D495B1E227CC5
S31508002820ACF1010C1035091DA0F5007080B2521EDE
S31508002830CCF3080C07EA034340EA0C00184306EAFF
S315080028400262104328600868626920F0C0001043DD
S3150800285008600A68A06922F0200202430A60281D5F
S315080028600A6822F010020A6002684FF6F873E469F3
S315080028709A4342EAC40202600868B9F1000F40F0C0
S3150800288010020A6011D00868B9F1010F11D040F49E
S3150800289000100860D8F80000444640F08060C8F888
S315080028A00000FEF7EDF905460DE0086840F4002043
S315080028B0EFE740F48010ECE7FEF7E2F9401B022848
S315080028C001D903208DE720680001F5D5504688E731
S315080028D0284402582DE9F047454D044689464FF0ED
S315080028E0000A2868C04380070AD0414E283E30684F
S315080028F020F080503060FEF7C3F90746B04608E07E
S315080029000120BDE8F08700BFFEF7BAF9C01B022810
S3150800291067D8D8F800008000F6D4208829684FF4D4
S31508002920FE0721F07C713E0241EA00502860207AB9
S31508002930A389B4F804C040022D4D2D495B1E227CA4
S31508002940ACF1010C1835091DA0F5007080B2521EB5
S31508002950CCF3080C07EA034340EA0C00184306EADE
S315080029600262104328600868626920F440601043D8
S3150800297008600A68A06922F4007202430A60281DEA
S315080029800A6822F480720A6002684FF6F873E469EE
S315080029909A4342EAC40202600868B9F1000F40F49B
S315080029A080720A6011D00868B9F1010F11D040F0A1
S315080029B080700860D8F80000444640F08050C8F897
S315080029C00000FEF75DF905460DE0086840F4800052
S315080029D0EFE740F40000ECE7FEF752F9401B022847
S315080029E001D903208DE720688000F5D5504688E791
S315080029F02844025878B514460D460122064669460B
S31508002A0000F00CF89DF8001001223046A943214336
S31508002A108DF80010694600F051F878BD264B70B560
S31508002A2040F0800510461E68541C74601C682668B1
S31508002A3046F0010626601C68266846F4007626607D
S31508002A401C6884F820501C686569ED07FCD094F86A
S31508002A50304001250C7019E01C686669B60707D571
S31508002A6030B184F82050401EBFF34F8FBFF36F8FED
S31508002A701C686669F60709D042B194F83040521EC0
S31508002A8001F8014BBFF34F8FBFF36F8F50EA020473
S31508002A90E2D1186841690907FCD5016821F00101EE
S31508002AA001601868816941F00801816118688169C7
S31508002AB041F01001816170BD580000241A4B30B5F1
S31508002AC0541C1D686C601C68256845F00105256066
S31508002AD01C68256845F4007525601C6884F8200084
S31508002AE007E04469A40704D511F8014B80F8204093
S31508002AF0521E1868002AF4D141690907FCD50168F5
S31508002B0021F0010101601868816941F008018161BD
S31508002B101868816941F0100181611868816941F07E
S31508002B204001816130BD0000580000247047FEF75F
S31508002B30ADB80000F0B59DB04C216846FDF7CFFB57
S31508002B40202113A8FDF7CBFB0220FEF791F92E49A9
S31508002B5000242E480A6822F001020A600A68026800
S31508002B6042F440420260026802F440421B92026844
S31508002B70D2439204FBD4264A136843F00203136037
S31508002B80126802F002021B92026842F44042026096
S31508002B9002680A6842F001020A60096801F0010148
S31508002BA01B910168C9438904FBD40DF1280E4FF027
S31508002BB0010C0220CDF818C005210990C022102367
S31508002BC08EE80700CDE90D034FF480370F900825EE
S31508002BD0684621261294CDE91054CDE90067FEF720
S31508002BE0A3FF40201A903F220101CDE9165013ADEC
S31508002BF0CDE91801032385E81C00042113A8FEF774
S31508002C00C9FD1DB0F0BD00002C0400581848025834
S31508002C10F4440258214A30B5214914680020204B53
S31508002C2044F47004146010330A681E4D42F0010221
S31508002C300A6018600A681A4B2A400A6018331C1D75
S31508002C40251D174A186028322060131D28601C1D90
S31508002C50251D10602A1D1860131D20601C1D286084
S31508002C60251D10601860206028600A680C4B0E4C01
S31508002C7022F4802260330A60186020686FF30F0020
S31508002C80B0F1005F03D209490120C1F808014FF0ED
S31508002C90006002498039086030BD000088ED00E018
S31508002CA0004402587FEDF6EA0010005C00800051EF
S31508002CB02DE9F047274B4FF0804A274D0268984286
S31508002CC0264E274F274C09D0504507D0A84205D095
S31508002CD0B04203D0B84201D0A04205D1D1F804C011
S31508002CE022F070024CEA0202DFF87CC0DFF87C8032
S31508002CF09842DFF87C900FD050450DD0A8420BD0F3
S31508002D00B04209D0B84207D0A04205D0604503D0EA
S31508002D10404501D0484503D1CD6822F440722A4384
S31508002D204D6922F080022A43026098428A68C2628C
S31508002D300A68826207D0A04205D0604503D04045A4
S31508002D4001D0484501D10969016301214161BDE806
S31508002D50F087000000000140000400400008004021
S31508002D60000C0040000401400040014000440140BE
S31508002D70004801400E4A10B588B0136843F00203B4
S31508002D801360126880230B4C02F00202069200229E
S31508002D90CDE90002CDE90212CDE9042369462046B1
S31508002DA0FFF786FF206840F00100206008B010BDDC
S31508002DB0E844025800040040FEE7090700284FEAE5
S31508002DC0116104DB00F1E02080F80014704700F080
S31508002DD00F0000F1E02080F8141D704702E008C8D3
S31508002DE0121F08C1002AFAD170477047002001E077
S31508002DF001C1121F002AFBD1704700001FB500242D
S31508002E000094019402940394FDF7C4FF01208DF801
S31508002E100C0010228DF808208DF8094003238DF840
S31508002E200D004FF040518DF800008DF80A006846F5
S31508002E308DF80E408DF8014001918DF80B308DF814
S31508002E400F40FDF779FF0420FDF7B2FF2C4A106802
S31508002E50800311D4BFF34F8FBFF36F8F29480460E7
S31508002E60BFF34F8FBFF36F8F106840F400301060C8
S31508002E70BFF34F8FBFF36F8F1068C00323D420486A
S31508002E8070300460BFF34F8F001F43F6FF7400686D
S31508002E901C4D1035C0F34E31C0F3C90304EA411680
S31508002EA0184600BF46EA80772F60401EFAD2491EB0
S31508002EB0F4D2BFF34F8F106840F480301060BFF330
S31508002EC04F8FBFF36F8FFDF7E9FEFFF733FEFFF76E
S31508002ED0E5FBFFF721FCFFF7CBFBFFF731FCEF2003
S31508002EE04FF6FF71FFF746FFFFF7DEFA064908605F
S31508002EF0FFF79CFA4FF47A742046FDF78DFDFBE741
S31508002F0014ED00E050EF00E004000024000000008B
S31508002F10010203040102030406070809BB000000B6
S31508002F200000000000000000000000000000000093
S31508002F300000000006101600061016005C2F000898
S31508002F400000002444000000DC2D0008A02F000823
S31508002F50440000248C050000EC2D00080000000049
S31508002F60000000000090D0030090D003000000008D
S31508002F700000000000000000000000000100000042
S31508002F801000000000000000000000000000000023
S31508002F900000000000000000000000000000000023
S7050800029957
